:100000000C945E000C9486000C9486000C94860080
:100010000C9486000C9486000C9486000C94860048
:100020000C9486000C9486000C9486000C94FB03C0
:100030000C9486000C9486000C9486000C94860028
:100040000C94FA050C9486000C9418080C9454082F
:100050000C9486000C9486000C9486000C94860008
:100060000C9486000C94860000000007000201003A
:100070000003040600000000000000000102040864
:100080001020408001020408102001020408102002
:10009000040404040404040402020202020203032E
:1000A0000303030300000000250028002B000000CC
:1000B0000000240027002A00F703090911241FBEAD
:1000C000CFEFD8E0DEBFCDBF11E0A0E0B1E0E0EAC5
:1000D000F4E102C005900D92A831B107D9F716E0FE
:1000E000A8E1B1E001C01D92A231B107E1F710E033
:1000F000CCEBD0E004C02297FE010E944A0AC83B24
:10010000D107C9F70E9469070C944E0A0C940000AD
:1001100010922001109221011092220110922301CD
:1001200010922401109225011092260110922701AD
:10013000109228011092290110922A0110922B018D
:1001400010922C0110922D0110922E0110922F016D
:10015000109230011092310180911C0190911D018B
:10016000A0911E01B0911F01809318019093190175
:10017000A0931A01B0931B011092380568E270E059
:1001800089E395E00C949C05613D724183419105A2
:1001900014F01092380580913805813019F468E226
:1001A00070E004C08F3F31F46CE870E089E395E0C3
:1001B0000C949C050895CF93DF93EC01BC01617012
:1001C000772782E00E943207BE016270772783E0C2
:1001D0000E943207BE016470772784E0DF91CF91DF
:1001E0000C943207682F88E00C9432071F93CF934A
:1001F000DF9340E051EE60E070E08BE695E00E9416
:100200008F0840E050E0BA018BE695E00E94760747
:10021000C0E0D1E01881229661E0812F0E94FA06A9
:1002200061E0812F0E94320781E0C830D80791F742
:1002300061E087E00E94FA0661E086E00E94FA062B
:1002400061E089E00E94FA0661E08AE00E94FA0615
:1002500065E070E089E395E00E94560568E270E091
:1002600089E395E00E949C0568EE73E080E090E0F1
:100270000E9465066CE870E089E395E00E949C05A9
:1002800068EE73E080E090E00E94650668E270E04E
:1002900089E395E00E949C050E94880064EF71E06C
:1002A00080E090E00E94650680E00E94F20080E01D
:1002B00090E0DF91CF911F910C94DB00CF93C82F7A
:1002C000862F642F0E94320760E08C2F0E94320735
:1002D00061E08C2FCF910C943207CF92DF92EF9296
:1002E000FF920F931F93CF93DF936B017C01A0913B
:1002F0003101BB27A7FDB0959B01AC010E94DA0933
:100300003BE095958795779567953A95D1F700915C
:100310002C0110912D0120912E0130912F01600FA1
:10032000711F821F931F00912401109125012091BC
:10033000260130912701601B710B820B930B45E066
:1003400095958795779567954A95D1F7EB01A0919B
:100350003001BB27A7FDB095A70196010E94DA09DD
:100360005BE095958795779567955A95D1F70091BC
:1003700028011091290120912A0130912B01600F51
:10038000711F821F931F0091200110912101209164
:10039000220130912301601B710B820B930BE5E06E
:1003A0009595879577956795EA95D1F77B01D7FF66
:1003B00005C0D195C195D10910E001C011E0F7FE4B
:1003C00005C0F194E194F10800E001C001E020973C
:1003D00009F465C0412F66E070E087E090E00E947C
:1003E0005E018091240190912501A0912601B09198
:1003F0002701112321F08096A11DB11D03C0809714
:10040000A109B1098093240190932501A0932601AD
:10041000B093270121978091240190912501A0910B
:100420002601B09127012DE0B595A7959795879561
:100430002A95D1F70E94DB00E114F10469F1402F05
:100440006AE070E089E090E00E945E018091200106
:1004500090912101A0912201B0912301002321F06C
:100460008096A11DB11D03C08097A109B109809399
:10047000200190932101A0932201B093230181E0F8
:10048000E81AF108209719F4E114F10459F082E315
:1004900090E00E948B069BCF209721F0F8CFE114CB
:1004A000F10469F6DF91CF911F910F91FF90EF90CA
:1004B000DF90CF90089560913601709137012091BF
:1004C000340130913501A901460F571F411594E0C1
:1004D000590708F05450FA01E85CFE4F808321155B
:1004E00084E0380781F4CB010196811524E092075E
:1004F00029F09093370180933601089510923701C7
:100500001092360108952F5F3F4F309335012093AD
:10051000340108958BE695E00E947C07892B09F150
:100520008BE695E00E94AB07803859F40E94880062
:100530001092330110923201109235011092340161
:100540000DC00E945B0280913201909133010197AE
:100550009093330180933201892B19F480E00C943D
:10056000F2000895209134013091350121153105B3
:10057000F1F04091360150913701FA01E85CFE4FED
:1005800080814F5F5F4F411594E0590729F05093E8
:1005900037014093360104C01092370110923601A2
:1005A000215031093093350120933401089580E0C2
:1005B000089540913101552747FD5095652F752FBE
:1005C00080912C0190912D01A0912E01B0912F01CD
:1005D000840F951FA61FB71F80932C0190932D01A8
:1005E000A0932E01B0932F0140913001552747FD74
:1005F0005095652F752F8091280190912901A09128
:100600002A01B0912B01840F951FA61FB71F80935D
:10061000280190932901A0932A01B0932B01809186
:10062000340190913501029728F410923001109214
:10063000310108950E94B202809331010E94B202FA
:100640008093300180913101813831F41092300172
:100650001092310181E007C08F3739F410923001D8
:10066000109231018FEF8093380508958091320107
:1006700090913301892BC9F480E094E020913401FA
:1006800030913501821B930B8038910570F060E842
:100690008BE695E00E94E10780E890E090933301BB
:1006A0008093320181E00C94F20008950F931F9320
:1006B000CF93DF9300D000D0CDB7DEB70E944406C1
:1006C00060931C0170931D0180931E0190931F0184
:1006D000009118011091190120911A0130911B010C
:1006E000601771078207930740F410921801109267
:1006F000190110921A0110921B010091180110911A
:10070000190120911A0130911B01601B710B820BA2
:10071000930B20913805222309F44CC00E94C40099
:100720008091380581114EC080911C0190911D016E
:10073000A0911E01B0911F0180931801909319019F
:10074000A0931A01B0931B013DC069837A838B8308
:100750009C830E94D90269817A818B819C81785027
:1007600081099109009118011091190120911A0134
:1007700030911B01185F2F4F3F4F009318011093CA
:10078000190120931A0130931B012091380522236F
:1007900089F080911C0190911D01A0911E01B091E2
:1007A0001F018093180190931901A0931A01B0932F
:1007B0001B0114C0613028E07207810591052CF6F9
:1007C0000E946D010E948A020F900F900F900F906F
:1007D000DF91CF911F910F910C9436030F900F90E2
:1007E0000F900F90DF91CF911F910F91089589E3A2
:1007F00095E00C94B9041F920F920FB60F9211243A
:100800002F933F934F935F936F937F938F939F9318
:10081000AF93BF93EF93FF9380913D0587FF05C092
:1008200010928500109284001AC020913D05332754
:1008300027FD309580913C0590E0281739077CF41E
:1008400080913D05992787FD9095FC01EE0FFF1FD4
:10085000E80FF91FE25CFA4F808186FD37C0809176
:100860003D058F5F80933D0520913D05332727FD92
:10087000309580913C0590E028173907CCF58091A0
:100880003D058C30F4F134C080913D05992787FDFA
:100890009095FC01EE0FFF1FE80FF91FE25CFA4F85
:1008A000808161E08F730E94320752C088EA91E62E
:1008B00005C08091840090918500049690938900F2
:1008C000809388008FEF80933D0542C080913D0565
:1008D000992787FD9095FC01EE0FFF1FE80FF91F88
:1008E000E25CFA4F808160E08F730E943207B7CFDD
:1008F00080918400909185000496883A9146B0F2E8
:10090000D8CF809184009091850020913D053327B8
:1009100027FD3095F901EE0FFF1FE20FF31FE25C98
:10092000FA4F21813281820F931F90938900809327
:10093000880080913D05992787FD9095FC01EE0F79
:10094000FF1FE80FF91FE25CFA4F808186FD9CCF04
:10095000FF91EF91BF91AF919F918F917F916F9197
:100960005F914F913F912F910F900FBE0F901F906D
:10097000189520913C052C30A0F4FC012083822F97
:100980008F5F80933C05822F90E0FC01EE0FFF1FEC
:10099000E80FF91FE25CFA4F83E597E092838183C9
:1009A00008952FEFFC0120830895DF92EF92FF92CC
:1009B0000F931F93CF93DF93EC01D62E7A01890119
:1009C00088818C3008F065C061E08D2D0E94FA06A8
:1009D0008881A82FB0E0FD01EE0FFF1FEA0FFB1F7B
:1009E000E25CFA4F2D2D2F739081907C922B908397
:1009F00060E272E06E197F0977FF02C06D5F7F4F82
:100A00007595679575956795698340E659E0401B34
:100A1000510B57FF02C04D5F5F4F55954795559558
:100A200047954A836CE00E94F2099CE0899FB001DF
:100A3000112420E030E0A901460F571FFA01EE0F04
:100A4000FF1FE40FF51FE25CFA4F908196FD15C081
:100A50002F5F3F4F2C30310571F71DC01092800081
:100A600082E0809381001092850010928400B19AF8
:100A700080916F00826080936F00888190E0FC011C
:100A8000EE0FFF1FE80FF91FE25CFA4F80818064D0
:100A90008083888103C0882309F3EFCFDF91CF9152
:100AA0001F910F91FF90EF90DF90089520E639E0BD
:100AB00040E252E00C94D5041F93CF93DF93FC01E6
:100AC00080818C30A8F59181A8E8B0E0A91BB1091C
:100AD00097FDB395AA0FBB1FAA0FBB1F6A177B0711
:100AE0007CF09281A8E5B2E0A91BB10997FDB3950E
:100AF000AA0FBB1FAA0FBB1F6A177B070CF4DB01F1
:100B000012971FB7F89490E0EC01CC0FDD1FC80FCF
:100B1000D91FC25CDA4F2AE030E00E94C80928E001
:100B200030E040E050E00E94200A3A8329831FBF52
:100B3000DF91CF911F910895AF92BF92CF92DF9234
:100B4000EF92FF920F931F93CF93DF93EC016032EC
:100B500082E078070CF041C077FD04C0653B710569
:100B600024F405C060E070E002C064EB70E029810D
:100B700088E890E0821B910927FD9395880F991FC3
:100B8000880F991F5C01CC24B7FCC094DC2C88270B
:100B900077FD8095982F2A8148E552E0421B510944
:100BA00027FD5395440F551F440F551F8A012227D7
:100BB00017FD2095322F3F932F931F930F9314EB24
:100BC000E12EF12C00E010E020E030E0A9010E94CD
:100BD00059090F900F900F900F90CE01DF91CF9198
:100BE0001F910F91FF90EF90DF90CF90BF90AF904B
:100BF0000C945C051F920F920FB60F9211242F9345
:100C00003F938F939F93AF93BF9380916205909191
:100C10006305A0916405B091650530916A05232FA5
:100C2000215B2D3720F40196A11DB11D05C0232F96
:100C30002E520296A11DB11D20936A058093620574
:100C400090936305A0936405B09365058091660554
:100C500090916705A0916805B09169050196A11D65
:100C6000B11D8093660590936705A0936805B093C6
:100C70006905BF91AF919F918F913F912F910F90F7
:100C80000FBE0F901F9018959FB7F894409166057E
:100C900050916705609168057091690586B5A89BBC
:100CA00006C08F3F21F04F5F5F4F6F4F7F4F9FBF59
:100CB0002227342F452F562F280F311D411D511D3E
:100CC000A6E0B0E00E94CF090895CF92DF92EF92A4
:100CD000FF92CF93DF936B017C010E944406EB01EE
:100CE0000EC00E9444066C1B7D0B683E734038F0BA
:100CF00081E0C81AD108E108F108C851DC4FC114DD
:100D0000D104E104F10469F7DF91CF91FF90EF90F6
:100D1000DF90CF900895019739F0019729F0880F5F
:100D2000991F01970197F1F70895789484B582602F
:100D300084BD84B5816084BD85B5826085BD85B57F
:100D4000816085BDEEE6F0E0808181608083E1E82E
:100D5000F0E0108280818260808380818160808366
:100D6000E0E8F0E0808181608083E1EBF0E0808169
:100D700084608083E0EBF0E0808181608083EAE73B
:100D8000F0E08081846080838081826080838081C4
:100D9000816080838081806880831092C100089583
:100DA000833069F028F48130A1F0823011F514C04D
:100DB0008630B1F08730C1F08430D9F404C080911E
:100DC00080008F7703C0809180008F7D80938000AA
:100DD000089584B58F7702C084B58F7D84BD089552
:100DE0008091B0008F7703C08091B0008F7D809399
:100DF000B0000895CF93DF9390E0FC01E458FF4FDB
:100E00004491FC01E057FF4F8491882341F190E029
:100E1000880F991FFC01E255FF4F25913491D901AC
:100E20008C559F4FFC0185919491C82FD92F9FB766
:100E3000F8948C91611106C0409584238C9388812D
:100E4000842308C0623041F4242F209582238C93A0
:100E50008881842B888302C0842B8C939FBFDF9171
:100E6000CF9108950F931F93CF93DF931F92CDB728
:100E7000DEB7282F30E0F901E859FF4F8491F901DE
:100E8000E458FF4F1491F901E057FF4F04910023FC
:100E9000D1F0882321F069830E94D0066981E02F78
:100EA000F0E0EE0FFF1FEC55FF4F85919491DC01B0
:100EB0009FB7F8948C91611103C01095812301C0F4
:100EC000812B8C939FBF0F90DF91CF911F910F913A
:100ED00008950E9495060E94F600CBE4D8E00E9497
:100EE00056032097E1F30E944B08F9CFFC0144839D
:100EF0005583668377830895FC0184859585FC017D
:100F0000E05CFF4F20813181FC01EE5BFF4F80816F
:100F10009181281B390B2F733327C9010895FC01D8
:100F200084859585FC01E05CFF4F40815181FC0187
:100F3000EE5BFF4F208131814217530741F0019052
:100F4000F081E02DE80FF91F208130E002C02FEF83
:100F50003FEFC9010895FC0184859585FC01E05CA3
:100F6000FF4F40815181FC01EE5BFF4F20813181B9
:100F70004217530781F0A081B181A80FB91F8C914E
:100F8000208131812F5F3F4F2F733327318320839F
:100F9000282F30E002C02FEF3FEFC9010895FC0178
:100FA00086859785FC01E05CFF4FDC01AE5BBF4F9F
:100FB000408151812D913C91119742175307C1F700
:100FC0000895CF93DF93FC0186859785DC01A05CB3
:100FD000BF4F2D913C9111972F5F3F4F2F733327B8
:100FE000EC01CE5BDF4F4881598124173507D9F3D7
:100FF0000D90BC91A02DA80FB91F6C93A685B78545
:10100000A05CBF4F11963C932E93A689B7892C9173
:1010100081E090E0058C02C0880F991F0A94E2F7E6
:10102000282B2C9381E090E0DF91CF9108950895D3
:101030001F920F920FB60F9211242F933F934F934D
:101040008F939F93EF93FF934091C60080910E067C
:1010500090910F0601968F73992720911006309179
:1010600011068217930759F0E0910E06F0910F06D2
:10107000E253FA4F408390930F0680930E06FF9140
:10108000EF919F918F914F913F912F910F900FBEB4
:101090000F901F9018958BE695E00E947C07892B96
:1010A00011F00C94170808951F920F920FB60F922B
:1010B00011242F933F938F939F93EF93FF9320914E
:1010C000CA053091CB058091CC059091CD052817AC
:1010D000390731F48091C1008F7D8093C10014C025
:1010E000E091CC05F091CD05E657FA4F2081809133
:1010F000CC059091CD0501968F7399279093CD05DE
:101100008093CC052093C600FF91EF919F918F9122
:101110003F912F910F900FBE0F901F901895CF9277
:10112000DF92EF92FF92CF93DF93EC016A017B0194
:10113000EC89FD8981E090E00E8C02C0880F991F38
:101140000A94E2F7808360EA75E286E290E0A70104
:1011500096010E94FE092150310941095109569515
:10116000479537952795211580E1380798F0EC8948
:10117000FD89108260ED72E183E190E0A7019601A4
:101180000E94FE09215031094109510956954795A0
:1011900037952795E889F9893083EA89FB89208387
:1011A000EE89FF89408181E090E09C010A8C02C0B9
:1011B000220F331F0A94E2F7422B4083EE89FF8906
:1011C00040819C010B8C02C0220F331F0A94E2F76E
:1011D000422B4083EE89FF8940819C010C8C02C028
:1011E000220F331F0A94E2F7422B4083EE89FF89D6
:1011F00020810D8C02C0880F991F0A94E2F7809518
:1012000082238083DF91CF91FF90EF90DF90CF908A
:10121000089510926E0510926D0588EE93E0A0E09F
:10122000B0E080936F0590937005A0937105B09323
:1012300072058CE091E090936C0580936B058EECC9
:1012400095E090937805809377058AE895E09093F0
:101250007A058093790585EC90E090937C058093E6
:101260007B0584EC90E090937E0580937D0580EC77
:1012700090E09093800580937F0581EC90E09093BF
:1012800082058093810586EC90E09093840580939D
:10129000830584E08093850583E08093860587E05D
:1012A0008093870585E08093880581E08093890598
:1012B00008954F925F926F927F92AF92BF92CF92BA
:1012C000DF92EF92FF920F931F93CF93DF93CDB7EF
:1012D000DEB729013A01621B730B840B950B298938
:1012E0003A894B895C892A193B094C095D09298B8C
:1012F0003A8B4B8B5C8B9B01AC0169897A898B891A
:101300009C890E94E209E418F50806091709A8015A
:1013100097010E94200A2A0D3B1D4C1D5D1DB9013D
:10132000CA01DF91CF911F910F91FF90EF90DF9055
:10133000CF90BF90AF907F906F905F904F90089547
:10134000CF92DF92EF92FF920F931F93CF93DF9391
:101350006C01EB017A01E60EF71E00E010E00BC015
:101360006991D601ED91FC910190F081E02DC601CB
:101370000995080F191FCE15DF0591F7C801DF91F8
:10138000CF911F910F91FF90EF90DF90CF90089534
:101390000E943C0AB7FF0895821B930B08950E9498
:1013A0003C0AA59F900DB49F900DA49F800D911DA8
:1013B00011240895B7FF0C94CF090E94CF09821B16
:1013C000930B0895DB018F939F930E94CF09BF91E8
:1013D000AF91A29F800D911DA39F900DB29F900D84
:1013E00011240895991B79E004C0991F961708F0FD
:1013F000961B881F7A95C9F780950895A1E21A2E49
:10140000AA1BBB1BFD010DC0AA1FBB1FEE1FFF1FA8
:10141000A217B307E407F50720F0A21BB30BE40BF8
:10142000F50B661F771F881F991F1A9469F760953F
:101430007095809590959B01AC01BD01CF010895F9
:10144000052E97FB16F4009407D057FD0DD00E948F
:10145000FE0907FC09D07EF4909580957095619502
:101460007F4F8F4F9F4F0895509540953095219510
:101470003F4F4F4F5F4F0895A29FB001B39FC001F0
:10148000A39F01D0B29F700D811D1124911D08955D
:10149000EE0FFF1F0590F491E02D0994F894FFCF13
:1014A000020003000400080000000000E107A0099A
:0814B0007C07AB078F07CF0793
:00000001FF
